{
  "transactions": [
    {
      "hash": "0x4cd1fb4d89e363e93f39c99832917f470bfd1df08f3ad96e1706106187bb7195",
      "transactionType": "CALL",
      "contractName": null,
      "contractAddress": "0x914786e1a5e784ddffc74a1f47a653cbdcddc67a",
      "function": "createNewGPPT(address,string)",
      "arguments": [
        "0x68F9A9C9b27716E1BC6F8D26711b11088F015a6A",
        "TEST-002"
      ],
      "transaction": {
        "from": "0x68f9a9c9b27716e1bc6f8d26711b11088f015a6a",
        "to": "0x914786e1a5e784ddffc74a1f47a653cbdcddc67a",
        "gas": "0x25baa",
        "value": "0x0",
        "input": "0x86e9e0ff00000000000000000000000068f9a9c9b27716e1bc6f8d26711b11088f015a6a00000000000000000000000000000000000000000000000000000000000000400000000000000000000000000000000000000000000000000000000000000008544553542d303032000000000000000000000000000000000000000000000000",
        "nonce": "0x2",
        "chainId": "0xaa36a7"
      },
      "additionalContracts": [],
      "isFixedGasLimit": false
    }
  ],
  "receipts": [
    {
      "status": "0x1",
      "cumulativeGasUsed": "0xfeccd9",
      "logs": [
        {
          "address": "0x914786e1a5e784ddffc74a1f47a653cbdcddc67a",
          "topics": [
            "0xddf252ad1be2c89b69c2b068fc378daa952ba7f163c4a11628f55a4df523b3ef",
            "0x0000000000000000000000000000000000000000000000000000000000000000",
            "0x00000000000000000000000068f9a9c9b27716e1bc6f8d26711b11088f015a6a",
            "0x0000000000000000000000000000000000000000000000000000000000000001"
          ],
          "data": "0x",
          "blockHash": "0x546b63a7b46929fef49ad14f4f9f4de55a4e44821699cbd2e06b4f0ef5dc3e05",
          "blockNumber": "0x7be385",
          "transactionHash": "0x4cd1fb4d89e363e93f39c99832917f470bfd1df08f3ad96e1706106187bb7195",
          "transactionIndex": "0x7b",
          "logIndex": "0xf9",
          "removed": false
        },
        {
          "address": "0x914786e1a5e784ddffc74a1f47a653cbdcddc67a",
          "topics": [
            "0xf8e1a15aba9398e019f0b49df1a4fde98ee17ae345cb5f6b5e2c27f5033e8ce7"
          ],
          "data": "0x0000000000000000000000000000000000000000000000000000000000000001",
          "blockHash": "0x546b63a7b46929fef49ad14f4f9f4de55a4e44821699cbd2e06b4f0ef5dc3e05",
          "blockNumber": "0x7be385",
          "transactionHash": "0x4cd1fb4d89e363e93f39c99832917f470bfd1df08f3ad96e1706106187bb7195",
          "transactionIndex": "0x7b",
          "logIndex": "0xfa",
          "removed": false
        },
        {
          "address": "0x914786e1a5e784ddffc74a1f47a653cbdcddc67a",
          "topics": [
            "0x1e1b69b56bd875547ce642e5ca9d38001b825863ffbf9cf08c72e0ff64b00a8d",
            "0x00000000000000000000000068f9a9c9b27716e1bc6f8d26711b11088f015a6a",
            "0x0000000000000000000000000000000000000000000000000000000000000001"
          ],
          "data": "0x00000000000000000000000000000000000000000000000000000000000000200000000000000000000000000000000000000000000000000000000000000008544553542d303032000000000000000000000000000000000000000000000000",
          "blockHash": "0x546b63a7b46929fef49ad14f4f9f4de55a4e44821699cbd2e06b4f0ef5dc3e05",
          "blockNumber": "0x7be385",
          "transactionHash": "0x4cd1fb4d89e363e93f39c99832917f470bfd1df08f3ad96e1706106187bb7195",
          "transactionIndex": "0x7b",
          "logIndex": "0xfb",
          "removed": false
        }
      ],
      "logsBloom": "0x00000000002000000000000000000000000000000000000000000000000000000000000000000000000000000000000000000000000000000000000000040000000000000000000000000008000200000000000000040000000000000000000000000400020000000000000000000800000000000000000000000810000000040000000000000000000000000000000000000000000000000000000000000000000000000000000000000000000000002000800000000000000000000000008000000002000000000000000001000000000020000000000000000000000060000000000000000000200000000000000000000000000000000000000000000000",
      "type": "0x2",
      "transactionHash": "0x4cd1fb4d89e363e93f39c99832917f470bfd1df08f3ad96e1706106187bb7195",
      "transactionIndex": "0x7b",
      "blockHash": "0x546b63a7b46929fef49ad14f4f9f4de55a4e44821699cbd2e06b4f0ef5dc3e05",
      "blockNumber": "0x7be385",
      "gasUsed": "0x1b50c",
      "effectiveGasPrice": "0x1256eb",
      "from": "0x68f9a9c9b27716e1bc6f8d26711b11088f015a6a",
      "to": "0x914786e1a5e784ddffc74a1f47a653cbdcddc67a",
      "contractAddress": null
    }
  ],
  "libraries": [],
  "pending": [],
  "returns": {},
  "timestamp": 1744664893,
  "chain": 11155111,
  "commit": "ae24c30"
}