{
  "transactions": [
    {
      "hash": "0x37f32d95f18ee63308d6ac532aacc350af3823bc453c6d9223447249090f4c10",
      "transactionType": "CALL",
      "contractName": null,
      "contractAddress": "0x914786e1a5e784ddffc74a1f47a653cbdcddc67a",
      "function": "createNewGPPT(address,string)",
      "arguments": [
        "0x68F9A9C9b27716E1BC6F8D26711b11088F015a6A",
        "TEST-002"
      ],
      "transaction": {
        "from": "0x68f9a9c9b27716e1bc6f8d26711b11088f015a6a",
        "to": "0x914786e1a5e784ddffc74a1f47a653cbdcddc67a",
        "gas": "0x31432",
        "value": "0x0",
        "input": "0x86e9e0ff00000000000000000000000068f9a9c9b27716e1bc6f8d26711b11088f015a6a00000000000000000000000000000000000000000000000000000000000000400000000000000000000000000000000000000000000000000000000000000008544553542d303032000000000000000000000000000000000000000000000000",
        "nonce": "0x1",
        "chainId": "0xaa36a7"
      },
      "additionalContracts": [],
      "isFixedGasLimit": false
    }
  ],
  "receipts": [
    {
      "status": "0x1",
      "cumulativeGasUsed": "0x4a4569",
      "logs": [
        {
          "address": "0x914786e1a5e784ddffc74a1f47a653cbdcddc67a",
          "topics": [
            "0xddf252ad1be2c89b69c2b068fc378daa952ba7f163c4a11628f55a4df523b3ef",
            "0x0000000000000000000000000000000000000000000000000000000000000000",
            "0x00000000000000000000000068f9a9c9b27716e1bc6f8d26711b11088f015a6a",
            "0x0000000000000000000000000000000000000000000000000000000000000000"
          ],
          "data": "0x",
          "blockHash": "0xc306ba0df8a3e862b7b63897c7addc0e988447ed68f7ea9642546dcd4f140d54",
          "blockNumber": "0x7be23e",
          "transactionHash": "0x37f32d95f18ee63308d6ac532aacc350af3823bc453c6d9223447249090f4c10",
          "transactionIndex": "0x3b",
          "logIndex": "0x65",
          "removed": false
        },
        {
          "address": "0x914786e1a5e784ddffc74a1f47a653cbdcddc67a",
          "topics": [
            "0xf8e1a15aba9398e019f0b49df1a4fde98ee17ae345cb5f6b5e2c27f5033e8ce7"
          ],
          "data": "0x0000000000000000000000000000000000000000000000000000000000000000",
          "blockHash": "0xc306ba0df8a3e862b7b63897c7addc0e988447ed68f7ea9642546dcd4f140d54",
          "blockNumber": "0x7be23e",
          "transactionHash": "0x37f32d95f18ee63308d6ac532aacc350af3823bc453c6d9223447249090f4c10",
          "transactionIndex": "0x3b",
          "logIndex": "0x66",
          "removed": false
        },
        {
          "address": "0x914786e1a5e784ddffc74a1f47a653cbdcddc67a",
          "topics": [
            "0x1e1b69b56bd875547ce642e5ca9d38001b825863ffbf9cf08c72e0ff64b00a8d",
            "0x00000000000000000000000068f9a9c9b27716e1bc6f8d26711b11088f015a6a",
            "0x0000000000000000000000000000000000000000000000000000000000000000"
          ],
          "data": "0x00000000000000000000000000000000000000000000000000000000000000200000000000000000000000000000000000000000000000000000000000000008544553542d303032000000000000000000000000000000000000000000000000",
          "blockHash": "0xc306ba0df8a3e862b7b63897c7addc0e988447ed68f7ea9642546dcd4f140d54",
          "blockNumber": "0x7be23e",
          "transactionHash": "0x37f32d95f18ee63308d6ac532aacc350af3823bc453c6d9223447249090f4c10",
          "transactionIndex": "0x3b",
          "logIndex": "0x67",
          "removed": false
        }
      ],
      "logsBloom": "0x00000000002000000000000000000000000000000000000000000000000000000000000000000000000000000000000000000000000000000000000000000000000000000000000000000008000200000000000000000000000000000000000000000400020000000000000000000800000000000000000000000810000000040000000000000000000000000000000000000000000000000000000000000000000000000000000000000000000000002000800000000000000000000000008000000002000000000000000001000000000020000000000000000000000020000000000000000000200000000000000000000000000000000000000000000000",
      "type": "0x2",
      "transactionHash": "0x37f32d95f18ee63308d6ac532aacc350af3823bc453c6d9223447249090f4c10",
      "transactionIndex": "0x3b",
      "blockHash": "0xc306ba0df8a3e862b7b63897c7addc0e988447ed68f7ea9642546dcd4f140d54",
      "blockNumber": "0x7be23e",
      "gasUsed": "0x23aa4",
      "effectiveGasPrice": "0x126d80",
      "from": "0x68f9a9c9b27716e1bc6f8d26711b11088f015a6a",
      "to": "0x914786e1a5e784ddffc74a1f47a653cbdcddc67a",
      "contractAddress": null
    }
  ],
  "libraries": [],
  "pending": [],
  "returns": {},
  "timestamp": 1744660286,
  "chain": 11155111,
  "commit": "ae24c30"
}